{
  "contractName": "Voting",
  "abi": [
    {
      "inputs": [
        {
          "internalType": "string",
          "name": "_eventName",
          "type": "string"
        }
      ],
      "stateMutability": "nonpayable",
      "type": "constructor"
    },
    {
      "anonymous": false,
      "inputs": [
        {
          "indexed": false,
          "internalType": "string",
          "name": "msg",
          "type": "string"
        }
      ],
      "name": "success",
      "type": "event"
    },
    {
      "inputs": [
        {
          "internalType": "uint256",
          "name": "",
          "type": "uint256"
        }
      ],
      "name": "candidateList",
      "outputs": [
        {
          "internalType": "string",
          "name": "name",
          "type": "string"
        },
        {
          "internalType": "uint256",
          "name": "age",
          "type": "uint256"
        },
        {
          "internalType": "bool",
          "name": "registered",
          "type": "bool"
        },
        {
          "internalType": "address",
          "name": "candidateAddress",
          "type": "address"
        },
        {
          "internalType": "uint256",
          "name": "votes",
          "type": "uint256"
        }
      ],
      "stateMutability": "view",
      "type": "function",
      "constant": true
    },
    {
      "inputs": [
        {
          "internalType": "address",
          "name": "",
          "type": "address"
        }
      ],
      "name": "candidates",
      "outputs": [
        {
          "internalType": "uint256",
          "name": "",
          "type": "uint256"
        }
      ],
      "stateMutability": "view",
      "type": "function",
      "constant": true
    },
    {
      "inputs": [],
      "name": "eventName",
      "outputs": [
        {
          "internalType": "string",
          "name": "",
          "type": "string"
        }
      ],
      "stateMutability": "view",
      "type": "function",
      "constant": true
    },
    {
      "inputs": [],
      "name": "owner",
      "outputs": [
        {
          "internalType": "address",
          "name": "",
          "type": "address"
        }
      ],
      "stateMutability": "view",
      "type": "function",
      "constant": true
    },
    {
      "inputs": [],
      "name": "totalVote",
      "outputs": [
        {
          "internalType": "uint256",
          "name": "",
          "type": "uint256"
        }
      ],
      "stateMutability": "view",
      "type": "function",
      "constant": true
    },
    {
      "inputs": [
        {
          "internalType": "address",
          "name": "",
          "type": "address"
        }
      ],
      "name": "voterList",
      "outputs": [
        {
          "internalType": "bool",
          "name": "registered",
          "type": "bool"
        },
        {
          "internalType": "bool",
          "name": "voted",
          "type": "bool"
        }
      ],
      "stateMutability": "view",
      "type": "function",
      "constant": true
    },
    {
      "inputs": [],
      "name": "winnerAddress",
      "outputs": [
        {
          "internalType": "address",
          "name": "",
          "type": "address"
        }
      ],
      "stateMutability": "view",
      "type": "function",
      "constant": true
    },
    {
      "inputs": [
        {
          "internalType": "string",
          "name": "_name",
          "type": "string"
        },
        {
          "internalType": "uint256",
          "name": "_age",
          "type": "uint256"
        },
        {
          "internalType": "address",
          "name": "_candidateAddress",
          "type": "address"
        }
      ],
      "name": "registerCandidates",
      "outputs": [],
      "stateMutability": "nonpayable",
      "type": "function"
    },
    {
      "inputs": [
        {
          "internalType": "string",
          "name": "_electionName",
          "type": "string"
        }
      ],
      "name": "startNewElection",
      "outputs": [],
      "stateMutability": "nonpayable",
      "type": "function"
    },
    {
      "inputs": [
        {
          "internalType": "address",
          "name": "to",
          "type": "address"
        }
      ],
      "name": "delegateYourVote",
      "outputs": [],
      "stateMutability": "nonpayable",
      "type": "function"
    },
    {
      "inputs": [
        {
          "internalType": "address",
          "name": "_voterAddress",
          "type": "address"
        }
      ],
      "name": "whiteListAddress",
      "outputs": [],
      "stateMutability": "nonpayable",
      "type": "function"
    },
    {
      "inputs": [],
      "name": "startVoting",
      "outputs": [],
      "stateMutability": "nonpayable",
      "type": "function"
    },
    {
      "inputs": [
        {
          "internalType": "address",
          "name": "_candidateAddress",
          "type": "address"
        }
      ],
      "name": "putVote",
      "outputs": [],
      "stateMutability": "nonpayable",
      "type": "function"
    },
    {
      "inputs": [],
      "name": "stopVoting",
      "outputs": [],
      "stateMutability": "nonpayable",
      "type": "function"
    },
    {
      "inputs": [],
      "name": "getAllCandidate",
      "outputs": [
        {
          "components": [
            {
              "internalType": "string",
              "name": "name",
              "type": "string"
            },
            {
              "internalType": "uint256",
              "name": "age",
              "type": "uint256"
            },
            {
              "internalType": "bool",
              "name": "registered",
              "type": "bool"
            },
            {
              "internalType": "address",
              "name": "candidateAddress",
              "type": "address"
            },
            {
              "internalType": "uint256",
              "name": "votes",
              "type": "uint256"
            }
          ],
          "internalType": "struct Voting.Candidate[]",
          "name": "list",
          "type": "tuple[]"
        }
      ],
      "stateMutability": "view",
      "type": "function",
      "constant": true
    },
    {
      "inputs": [],
      "name": "votingStatus",
      "outputs": [
        {
          "internalType": "bool",
          "name": "",
          "type": "bool"
        }
      ],
      "stateMutability": "view",
      "type": "function",
      "constant": true
    },
    {
      "inputs": [],
      "name": "getWinner",
      "outputs": [
        {
          "components": [
            {
              "internalType": "string",
              "name": "name",
              "type": "string"
            },
            {
              "internalType": "uint256",
              "name": "age",
              "type": "uint256"
            },
            {
              "internalType": "bool",
              "name": "registered",
              "type": "bool"
            },
            {
              "internalType": "address",
              "name": "candidateAddress",
              "type": "address"
            },
            {
              "internalType": "uint256",
              "name": "votes",
              "type": "uint256"
            }
          ],
          "internalType": "struct Voting.Candidate",
          "name": "candidate",
          "type": "tuple"
        }
      ],
      "stateMutability": "view",
      "type": "function",
      "constant": true
    }
  ],
  "bytecode": "0x60806040523480156200001157600080fd5b506040516200328e3803806200328e833981810160405281019062000037919062000246565b336000806101000a81548173ffffffffffffffffffffffffffffffffffffffff021916908373ffffffffffffffffffffffffffffffffffffffff1602179055508060029081620000889190620004e2565b5060006003819055506000600460006101000a81548160ff02191690831515021790555050620005c9565b6000604051905090565b600080fd5b600080fd5b600080fd5b600080fd5b6000601f19601f8301169050919050565b7f4e487b7100000000000000000000000000000000000000000000000000000000600052604160045260246000fd5b6200011c82620000d1565b810181811067ffffffffffffffff821117156200013e576200013d620000e2565b5b80604052505050565b600062000153620000b3565b905062000161828262000111565b919050565b600067ffffffffffffffff821115620001845762000183620000e2565b5b6200018f82620000d1565b9050602081019050919050565b60005b83811015620001bc5780820151818401526020810190506200019f565b60008484015250505050565b6000620001df620001d98462000166565b62000147565b905082815260208101848484011115620001fe57620001fd620000cc565b5b6200020b8482856200019c565b509392505050565b600082601f8301126200022b576200022a620000c7565b5b81516200023d848260208601620001c8565b91505092915050565b6000602082840312156200025f576200025e620000bd565b5b600082015167ffffffffffffffff81111562000280576200027f620000c2565b5b6200028e8482850162000213565b91505092915050565b600081519050919050565b7f4e487b7100000000000000000000000000000000000000000000000000000000600052602260045260246000fd5b60006002820490506001821680620002ea57607f821691505b6020821081036200030057620002ff620002a2565b5b50919050565b60008190508160005260206000209050919050565b60006020601f8301049050919050565b600082821b905092915050565b6000600883026200036a7fffffffffffffffffffffffffffffffffffffffffffffffffffffffffffffffff826200032b565b6200037686836200032b565b95508019841693508086168417925050509392505050565b6000819050919050565b6000819050919050565b6000620003c3620003bd620003b7846200038e565b62000398565b6200038e565b9050919050565b6000819050919050565b620003df83620003a2565b620003f7620003ee82620003ca565b84845462000338565b825550505050565b600090565b6200040e620003ff565b6200041b818484620003d4565b505050565b5b8181101562000443576200043760008262000404565b60018101905062000421565b5050565b601f82111562000492576200045c8162000306565b62000467846200031b565b8101602085101562000477578190505b6200048f62000486856200031b565b83018262000420565b50505b505050565b600082821c905092915050565b6000620004b76000198460080262000497565b1980831691505092915050565b6000620004d28383620004a4565b9150826002028217905092915050565b620004ed8262000297565b67ffffffffffffffff811115620005095762000508620000e2565b5b620005158254620002d1565b6200052282828562000447565b600060209050601f8311600181146200055a576000841562000545578287015190505b620005518582620004c4565b865550620005c1565b601f1984166200056a8662000306565b60005b8281101562000594578489015182556001820191506020850194506020810190506200056d565b86831015620005b45784890151620005b0601f891682620004a4565b8355505b6001600288020188555050505b505050505050565b612cb580620005d96000396000f3fe608060405234801561001057600080fd5b506004361061010b5760003560e01c80638da5cb5b116100a2578063cf52a7b211610071578063cf52a7b214610297578063ed7a4e0b146102b3578063efd5297c146102d1578063f1cea4c7146102ef578063fab2f86b1461030d5761010b565b80638da5cb5b1461020b5780638e7ea5b214610229578063b13c744b14610247578063b2d300721461027b5761010b565b806365087215116100de57806365087215146101855780638043c9c0146101a157806388fb6f74146101bf5780638ab66a90146101db5761010b565b806303b4caed1461011057806319f41a40146101415780631ec6b60a1461015f5780633c71a6d514610169575b600080fd5b61012a600480360381019061012591906118e2565b610317565b60405161013892919061192a565b60405180910390f35b610149610355565b6040516101569190611953565b60405180910390f35b61016761036c565b005b610183600480360381019061017e9190611aea565b61044c565b005b61019f600480360381019061019a9190611b59565b61079e565b005b6101a961083f565b6040516101b69190611c21565b60405180910390f35b6101d960048036038101906101d491906118e2565b6108cd565b005b6101f560048036038101906101f091906118e2565b610d5f565b6040516102029190611c52565b60405180910390f35b610213610d77565b6040516102209190611c7c565b60405180910390f35b610231610d9b565b60405161023e9190611d84565b60405180910390f35b610261600480360381019061025c9190611da6565b610fdb565b604051610272959493929190611dd3565b60405180910390f35b610295600480360381019061029091906118e2565b6110d6565b005b6102b160048036038101906102ac91906118e2565b61131a565b005b6102bb6115a7565b6040516102c89190611c7c565b60405180910390f35b6102d96115cd565b6040516102e69190611f65565b60405180910390f35b6102f7611743565b6040516103049190611c52565b60405180910390f35b610315611749565b005b60076020528060005260406000206000915090508060000160009054906101000a900460ff16908060000160019054906101000a900460ff16905082565b6000600460009054906101000a900460ff16905090565b60008054906101000a900473ffffffffffffffffffffffffffffffffffffffff1673ffffffffffffffffffffffffffffffffffffffff163373ffffffffffffffffffffffffffffffffffffffff16146103fa576040517f08c379a00000000000000000000000000000000000000000000000000000000081526004016103f190611fd3565b60405180910390fd5b6001600460006101000a81548160ff0219169083151502179055507f68f068b2f0d02fca99bc8285b62fce8668fe16b7c6a810351ea25bff358c0dd86040516104429061203f565b60405180910390a1565b60008054906101000a900473ffffffffffffffffffffffffffffffffffffffff1673ffffffffffffffffffffffffffffffffffffffff163373ffffffffffffffffffffffffffffffffffffffff16146104da576040517f08c379a00000000000000000000000000000000000000000000000000000000081526004016104d1906120d1565b60405180910390fd5b60008054906101000a900473ffffffffffffffffffffffffffffffffffffffff1673ffffffffffffffffffffffffffffffffffffffff168173ffffffffffffffffffffffffffffffffffffffff1603610568576040517f08c379a000000000000000000000000000000000000000000000000000000000815260040161055f9061213d565b60405180910390fd5b6000600560008373ffffffffffffffffffffffffffffffffffffffff1673ffffffffffffffffffffffffffffffffffffffff16815260200190815260200160002054146105ea576040517f08c379a00000000000000000000000000000000000000000000000000000000081526004016105e1906121a9565b60405180910390fd5b60006040518060a001604052808581526020018481526020016001151581526020018373ffffffffffffffffffffffffffffffffffffffff1681526020016000815250905060006006805490500361065b576006600181600181540180825580915050039060005260206000209050505b600680549050600560008473ffffffffffffffffffffffffffffffffffffffff1673ffffffffffffffffffffffffffffffffffffffff16815260200190815260200160002081905550600681908060018154018082558091505060019003906000526020600020906004020160009091909190915060008201518160000190816106e591906123d5565b506020820151816001015560408201518160020160006101000a81548160ff02191690831515021790555060608201518160020160016101000a81548173ffffffffffffffffffffffffffffffffffffffff021916908373ffffffffffffffffffffffffffffffffffffffff1602179055506080820151816003015550507f68f068b2f0d02fca99bc8285b62fce8668fe16b7c6a810351ea25bff358c0dd8604051610790906124f3565b60405180910390a150505050565b60008054906101000a900473ffffffffffffffffffffffffffffffffffffffff1673ffffffffffffffffffffffffffffffffffffffff163373ffffffffffffffffffffffffffffffffffffffff161461082c576040517f08c379a000000000000000000000000000000000000000000000000000000000815260040161082390612585565b60405180910390fd5b806002908161083b91906123d5565b5050565b6002805461084c906121f8565b80601f0160208091040260200160405190810160405280929190818152602001828054610878906121f8565b80156108c55780601f1061089a576101008083540402835291602001916108c5565b820191906000526020600020905b8154815290600101906020018083116108a857829003601f168201915b505050505081565b60011515600460009054906101000a900460ff16151514610923576040517f08c379a000000000000000000000000000000000000000000000000000000000815260040161091a90612617565b60405180910390fd5b60008054906101000a900473ffffffffffffffffffffffffffffffffffffffff1673ffffffffffffffffffffffffffffffffffffffff163373ffffffffffffffffffffffffffffffffffffffff16036109b1576040517f08c379a00000000000000000000000000000000000000000000000000000000081526004016109a890612683565b60405180910390fd5b60011515600760003373ffffffffffffffffffffffffffffffffffffffff1673ffffffffffffffffffffffffffffffffffffffff16815260200190815260200160002060000160009054906101000a900460ff16151514610a47576040517f08c379a0000000000000000000000000000000000000000000000000000000008152600401610a3e906126ef565b60405180910390fd5b60001515600760003373ffffffffffffffffffffffffffffffffffffffff1673ffffffffffffffffffffffffffffffffffffffff16815260200190815260200160002060000160019054906101000a900460ff16151514610add576040517f08c379a0000000000000000000000000000000000000000000000000000000008152600401610ad49061275b565b60405180910390fd5b600115156006600560008473ffffffffffffffffffffffffffffffffffffffff1673ffffffffffffffffffffffffffffffffffffffff1681526020019081526020016000205481548110610b3457610b3361277b565b5b906000526020600020906004020160020160009054906101000a900460ff16151514610b95576040517f08c379a0000000000000000000000000000000000000000000000000000000008152600401610b8c906127f6565b60405180910390fd5b6006600560008373ffffffffffffffffffffffffffffffffffffffff1673ffffffffffffffffffffffffffffffffffffffff1681526020019081526020016000205481548110610be857610be761277b565b5b90600052602060002090600402016003016000815480929190610c0a90612845565b91905055506001600760003373ffffffffffffffffffffffffffffffffffffffff1673ffffffffffffffffffffffffffffffffffffffff16815260200190815260200160002060000160016101000a81548160ff02191690831515021790555060006006600560008473ffffffffffffffffffffffffffffffffffffffff1673ffffffffffffffffffffffffffffffffffffffff1681526020019081526020016000205481548110610cbf57610cbe61277b565b5b9060005260206000209060040201600301549050806003541015610d26578060038190555081600160006101000a81548173ffffffffffffffffffffffffffffffffffffffff021916908373ffffffffffffffffffffffffffffffffffffffff1602179055505b7f68f068b2f0d02fca99bc8285b62fce8668fe16b7c6a810351ea25bff358c0dd8604051610d53906128d9565b60405180910390a15050565b60056020528060005260406000206000915090505481565b60008054906101000a900473ffffffffffffffffffffffffffffffffffffffff1681565b610da3611829565b60008054906101000a900473ffffffffffffffffffffffffffffffffffffffff1673ffffffffffffffffffffffffffffffffffffffff163373ffffffffffffffffffffffffffffffffffffffff1614610e31576040517f08c379a0000000000000000000000000000000000000000000000000000000008152600401610e2890612945565b60405180910390fd5b600660056000600160009054906101000a900473ffffffffffffffffffffffffffffffffffffffff1673ffffffffffffffffffffffffffffffffffffffff1673ffffffffffffffffffffffffffffffffffffffff1681526020019081526020016000205481548110610ea657610ea561277b565b5b90600052602060002090600402016040518060a0016040529081600082018054610ecf906121f8565b80601f0160208091040260200160405190810160405280929190818152602001828054610efb906121f8565b8015610f485780601f10610f1d57610100808354040283529160200191610f48565b820191906000526020600020905b815481529060010190602001808311610f2b57829003601f168201915b50505050508152602001600182015481526020016002820160009054906101000a900460ff161515151581526020016002820160019054906101000a900473ffffffffffffffffffffffffffffffffffffffff1673ffffffffffffffffffffffffffffffffffffffff1673ffffffffffffffffffffffffffffffffffffffff168152602001600382015481525050905090565b60068181548110610feb57600080fd5b906000526020600020906004020160009150905080600001805461100e906121f8565b80601f016020809104026020016040519081016040528092919081815260200182805461103a906121f8565b80156110875780601f1061105c57610100808354040283529160200191611087565b820191906000526020600020905b81548152906001019060200180831161106a57829003601f168201915b5050505050908060010154908060020160009054906101000a900460ff16908060020160019054906101000a900473ffffffffffffffffffffffffffffffffffffffff16908060030154905085565b6000600760003373ffffffffffffffffffffffffffffffffffffffff1673ffffffffffffffffffffffffffffffffffffffff16815260200190815260200160002090508060000160019054906101000a900460ff161561116b576040517f08c379a0000000000000000000000000000000000000000000000000000000008152600401611162906129b1565b60405180910390fd5b60008054906101000a900473ffffffffffffffffffffffffffffffffffffffff1673ffffffffffffffffffffffffffffffffffffffff168273ffffffffffffffffffffffffffffffffffffffff16036111f9576040517f08c379a00000000000000000000000000000000000000000000000000000000081526004016111f090612683565b60405180910390fd5b3373ffffffffffffffffffffffffffffffffffffffff168273ffffffffffffffffffffffffffffffffffffffff1603611267576040517f08c379a000000000000000000000000000000000000000000000000000000000815260040161125e90612a1d565b60405180910390fd5b6006600560008473ffffffffffffffffffffffffffffffffffffffff1673ffffffffffffffffffffffffffffffffffffffff16815260200190815260200160002054815481106112ba576112b961277b565b5b906000526020600020906004020160030160008154809291906112dc90612845565b91905055507f68f068b2f0d02fca99bc8285b62fce8668fe16b7c6a810351ea25bff358c0dd860405161130e90612a89565b60405180910390a15050565b60008054906101000a900473ffffffffffffffffffffffffffffffffffffffff1673ffffffffffffffffffffffffffffffffffffffff168173ffffffffffffffffffffffffffffffffffffffff16036113a8576040517f08c379a000000000000000000000000000000000000000000000000000000000815260040161139f90612683565b60405180910390fd5b60008054906101000a900473ffffffffffffffffffffffffffffffffffffffff1673ffffffffffffffffffffffffffffffffffffffff163373ffffffffffffffffffffffffffffffffffffffff1614611436576040517f08c379a000000000000000000000000000000000000000000000000000000000815260040161142d90612b1b565b60405180910390fd5b60001515600760008373ffffffffffffffffffffffffffffffffffffffff1673ffffffffffffffffffffffffffffffffffffffff16815260200190815260200160002060000160009054906101000a900460ff161515146114cc576040517f08c379a00000000000000000000000000000000000000000000000000000000081526004016114c390612b87565b60405180910390fd5b6000604051806040016040528060011515815260200160001515815250905080600760008473ffffffffffffffffffffffffffffffffffffffff1673ffffffffffffffffffffffffffffffffffffffff16815260200190815260200160002060008201518160000160006101000a81548160ff02191690831515021790555060208201518160000160016101000a81548160ff0219169083151502179055509050507f68f068b2f0d02fca99bc8285b62fce8668fe16b7c6a810351ea25bff358c0dd860405161159b90612bf3565b60405180910390a15050565b600160009054906101000a900473ffffffffffffffffffffffffffffffffffffffff1681565b60606006805480602002602001604051908101604052809291908181526020016000905b8282101561173a57838290600052602060002090600402016040518060a0016040529081600082018054611624906121f8565b80601f0160208091040260200160405190810160405280929190818152602001828054611650906121f8565b801561169d5780601f106116725761010080835404028352916020019161169d565b820191906000526020600020905b81548152906001019060200180831161168057829003601f168201915b50505050508152602001600182015481526020016002820160009054906101000a900460ff161515151581526020016002820160019054906101000a900473ffffffffffffffffffffffffffffffffffffffff1673ffffffffffffffffffffffffffffffffffffffff1673ffffffffffffffffffffffffffffffffffffffff168152602001600382015481525050815260200190600101906115f1565b50505050905090565b60035481565b60008054906101000a900473ffffffffffffffffffffffffffffffffffffffff1673ffffffffffffffffffffffffffffffffffffffff163373ffffffffffffffffffffffffffffffffffffffff16146117d7576040517f08c379a00000000000000000000000000000000000000000000000000000000081526004016117ce90611fd3565b60405180910390fd5b6000600460006101000a81548160ff0219169083151502179055507f68f068b2f0d02fca99bc8285b62fce8668fe16b7c6a810351ea25bff358c0dd860405161181f90612c5f565b60405180910390a1565b6040518060a001604052806060815260200160008152602001600015158152602001600073ffffffffffffffffffffffffffffffffffffffff168152602001600081525090565b6000604051905090565b600080fd5b600080fd5b600073ffffffffffffffffffffffffffffffffffffffff82169050919050565b60006118af82611884565b9050919050565b6118bf816118a4565b81146118ca57600080fd5b50565b6000813590506118dc816118b6565b92915050565b6000602082840312156118f8576118f761187a565b5b6000611906848285016118cd565b91505092915050565b60008115159050919050565b6119248161190f565b82525050565b600060408201905061193f600083018561191b565b61194c602083018461191b565b9392505050565b6000602082019050611968600083018461191b565b92915050565b600080fd5b600080fd5b6000601f19601f8301169050919050565b7f4e487b7100000000000000000000000000000000000000000000000000000000600052604160045260246000fd5b6119c182611978565b810181811067ffffffffffffffff821117156119e0576119df611989565b5b80604052505050565b60006119f3611870565b90506119ff82826119b8565b919050565b600067ffffffffffffffff821115611a1f57611a1e611989565b5b611a2882611978565b9050602081019050919050565b82818337600083830152505050565b6000611a57611a5284611a04565b6119e9565b905082815260208101848484011115611a7357611a72611973565b5b611a7e848285611a35565b509392505050565b600082601f830112611a9b57611a9a61196e565b5b8135611aab848260208601611a44565b91505092915050565b6000819050919050565b611ac781611ab4565b8114611ad257600080fd5b50565b600081359050611ae481611abe565b92915050565b600080600060608486031215611b0357611b0261187a565b5b600084013567ffffffffffffffff811115611b2157611b2061187f565b5b611b2d86828701611a86565b9350506020611b3e86828701611ad5565b9250506040611b4f868287016118cd565b9150509250925092565b600060208284031215611b6f57611b6e61187a565b5b600082013567ffffffffffffffff811115611b8d57611b8c61187f565b5b611b9984828501611a86565b91505092915050565b600081519050919050565b600082825260208201905092915050565b60005b83811015611bdc578082015181840152602081019050611bc1565b60008484015250505050565b6000611bf382611ba2565b611bfd8185611bad565b9350611c0d818560208601611bbe565b611c1681611978565b840191505092915050565b60006020820190508181036000830152611c3b8184611be8565b905092915050565b611c4c81611ab4565b82525050565b6000602082019050611c676000830184611c43565b92915050565b611c76816118a4565b82525050565b6000602082019050611c916000830184611c6d565b92915050565b600082825260208201905092915050565b6000611cb382611ba2565b611cbd8185611c97565b9350611ccd818560208601611bbe565b611cd681611978565b840191505092915050565b611cea81611ab4565b82525050565b611cf98161190f565b82525050565b611d08816118a4565b82525050565b600060a0830160008301518482036000860152611d2b8282611ca8565b9150506020830151611d406020860182611ce1565b506040830151611d536040860182611cf0565b506060830151611d666060860182611cff565b506080830151611d796080860182611ce1565b508091505092915050565b60006020820190508181036000830152611d9e8184611d0e565b905092915050565b600060208284031215611dbc57611dbb61187a565b5b6000611dca84828501611ad5565b91505092915050565b600060a0820190508181036000830152611ded8188611be8565b9050611dfc6020830187611c43565b611e09604083018661191b565b611e166060830185611c6d565b611e236080830184611c43565b9695505050505050565b600081519050919050565b600082825260208201905092915050565b6000819050602082019050919050565b600060a0830160008301518482036000860152611e768282611ca8565b9150506020830151611e8b6020860182611ce1565b506040830151611e9e6040860182611cf0565b506060830151611eb16060860182611cff565b506080830151611ec46080860182611ce1565b508091505092915050565b6000611edb8383611e59565b905092915050565b6000602082019050919050565b6000611efb82611e2d565b611f058185611e38565b935083602082028501611f1785611e49565b8060005b85811015611f535784840389528151611f348582611ecf565b9450611f3f83611ee3565b925060208a01995050600181019050611f1b565b50829750879550505050505092915050565b60006020820190508181036000830152611f7f8184611ef0565b905092915050565b7f4f6e6c79206f776e65722063616e20737461727420766f74696e672121000000600082015250565b6000611fbd601d83611bad565b9150611fc882611f87565b602082019050919050565b60006020820190508181036000830152611fec81611fb0565b9050919050565b7f566f74696e672053746172746564212100000000000000000000000000000000600082015250565b6000612029601083611bad565b915061203482611ff3565b602082019050919050565b600060208201905081810360008301526120588161201c565b9050919050565b7f4f6e6c79206f776e65722063616e2072656769737465722043616e646964617460008201527f6521210000000000000000000000000000000000000000000000000000000000602082015250565b60006120bb602383611bad565b91506120c68261205f565b604082019050919050565b600060208201905081810360008301526120ea816120ae565b9050919050565b7f4f776e65722063616e206e6f7420706172746963697061746521210000000000600082015250565b6000612127601b83611bad565b9150612132826120f1565b602082019050919050565b600060208201905081810360008301526121568161211a565b9050919050565b7f43616e64696461746520616c7265616479207265676973746572656400000000600082015250565b6000612193601c83611bad565b915061219e8261215d565b602082019050919050565b600060208201905081810360008301526121c281612186565b9050919050565b7f4e487b7100000000000000000000000000000000000000000000000000000000600052602260045260246000fd5b6000600282049050600182168061221057607f821691505b602082108103612223576122226121c9565b5b50919050565b60008190508160005260206000209050919050565b60006020601f8301049050919050565b600082821b905092915050565b60006008830261228b7fffffffffffffffffffffffffffffffffffffffffffffffffffffffffffffffff8261224e565b612295868361224e565b95508019841693508086168417925050509392505050565b6000819050919050565b60006122d26122cd6122c884611ab4565b6122ad565b611ab4565b9050919050565b6000819050919050565b6122ec836122b7565b6123006122f8826122d9565b84845461225b565b825550505050565b600090565b612315612308565b6123208184846122e3565b505050565b5b818110156123445761233960008261230d565b600181019050612326565b5050565b601f8211156123895761235a81612229565b6123638461223e565b81016020851015612372578190505b61238661237e8561223e565b830182612325565b50505b505050565b600082821c905092915050565b60006123ac6000198460080261238e565b1980831691505092915050565b60006123c5838361239b565b9150826002028217905092915050565b6123de82611ba2565b67ffffffffffffffff8111156123f7576123f6611989565b5b61240182546121f8565b61240c828285612348565b600060209050601f83116001811461243f576000841561242d578287015190505b61243785826123b9565b86555061249f565b601f19841661244d86612229565b60005b8281101561247557848901518255600182019150602085019450602081019050612450565b86831015612492578489015161248e601f89168261239b565b8355505b6001600288020188555050505b505050505050565b7f43616e6469646174652072656769737465726564212100000000000000000000600082015250565b60006124dd601683611bad565b91506124e8826124a7565b602082019050919050565b6000602082019050818103600083015261250c816124d0565b9050919050565b7f4f6e6c79204368616972706572736f6e2063616e205374617274204e6577204560008201527f6c656374696f6e00000000000000000000000000000000000000000000000000602082015250565b600061256f602783611bad565b915061257a82612513565b604082019050919050565b6000602082019050818103600083015261259e81612562565b9050919050565b7f566f74696e67206e6f74207374617274656420796574206f7220656e6465642160008201527f2100000000000000000000000000000000000000000000000000000000000000602082015250565b6000612601602183611bad565b915061260c826125a5565b604082019050919050565b60006020820190508181036000830152612630816125f4565b9050919050565b7f4f776e65722063616e206e6f7420766f74652121000000000000000000000000600082015250565b600061266d601483611bad565b915061267882612637565b602082019050919050565b6000602082019050818103600083015261269c81612660565b9050919050565b7f566f746572206e6f742072656769737465726564212100000000000000000000600082015250565b60006126d9601683611bad565b91506126e4826126a3565b602082019050919050565b60006020820190508181036000830152612708816126cc565b9050919050565b7f416c726561647920766f74656421210000000000000000000000000000000000600082015250565b6000612745600f83611bad565b91506127508261270f565b602082019050919050565b6000602082019050818103600083015261277481612738565b9050919050565b7f4e487b7100000000000000000000000000000000000000000000000000000000600052603260045260246000fd5b7f43616e646964617465206e6f7420726567697374657265640000000000000000600082015250565b60006127e0601883611bad565b91506127eb826127aa565b602082019050919050565b6000602082019050818103600083015261280f816127d3565b9050919050565b7f4e487b7100000000000000000000000000000000000000000000000000000000600052601160045260246000fd5b600061285082611ab4565b91507fffffffffffffffffffffffffffffffffffffffffffffffffffffffffffffffff820361288257612881612816565b5b600182019050919050565b7f566f746564202121000000000000000000000000000000000000000000000000600082015250565b60006128c3600883611bad565b91506128ce8261288d565b602082019050919050565b600060208201905081810360008301526128f2816128b6565b9050919050565b7f4f6e6c79206f776e65722063616e206465636c6172652077696e6e6572212100600082015250565b600061292f601f83611bad565b915061293a826128f9565b602082019050919050565b6000602082019050818103600083015261295e81612922565b9050919050565b7f596f7520616c726561647920766f7465642e0000000000000000000000000000600082015250565b600061299b601283611bad565b91506129a682612965565b602082019050919050565b600060208201905081810360008301526129ca8161298e565b9050919050565b7f53656c662d64656c65676174696f6e20697320646973616c6c6f7765642e0000600082015250565b6000612a07601e83611bad565b9150612a12826129d1565b602082019050919050565b60006020820190508181036000830152612a36816129fa565b9050919050565b7f44656c6567617465642021210000000000000000000000000000000000000000600082015250565b6000612a73600c83611bad565b9150612a7e82612a3d565b602082019050919050565b60006020820190508181036000830152612aa281612a66565b9050919050565b7f4f6e6c79206f776e65722063616e2077686974656c697374207468652061646460008201527f7265737365732121000000000000000000000000000000000000000000000000602082015250565b6000612b05602883611bad565b9150612b1082612aa9565b604082019050919050565b60006020820190508181036000830152612b3481612af8565b9050919050565b7f566f74657220616c726561647920726567697374657265642121000000000000600082015250565b6000612b71601a83611bad565b9150612b7c82612b3b565b602082019050919050565b60006020820190508181036000830152612ba081612b64565b9050919050565b7f566f746572207265676973746572656421210000000000000000000000000000600082015250565b6000612bdd601283611bad565b9150612be882612ba7565b602082019050919050565b60006020820190508181036000830152612c0c81612bd0565b9050919050565b7f566f74696e672073746f70656421210000000000000000000000000000000000600082015250565b6000612c49600f83611bad565b9150612c5482612c13565b602082019050919050565b60006020820190508181036000830152612c7881612c3c565b905091905056fea264697066735822122028d85084805afce36860acda2ff9345414892157a9eb514eeaa818628ece1aad64736f6c63430008130033",
  "immutableReferences": {},
  "source": "// SPDX-License-Identifier: GPL-3.0\r\n\r\npragma solidity ^0.8.0;\r\n\r\ncontract Voting {\r\n\r\n    address public owner;\r\n    address public winnerAddress;\r\n    string public eventName;\r\n    uint public totalVote;\r\n    bool votingStarted;\r\n\r\n    //Candidate with his/her basic details\r\n    struct Candidate{\r\n        string name;\r\n        uint age;\r\n        bool registered;\r\n        address candidateAddress;\r\n        uint votes;\r\n    }\r\n\r\n    struct Voter{\r\n        bool registered; // if true, that person is already registered\r\n        bool voted;  // if true, that person already voted\r\n    }\r\n\r\n\r\n    event success(string msg);\r\n    mapping(address=>uint) public candidates;\r\n    Candidate[] public candidateList;\r\n    mapping(address=>Voter) public voterList;\r\n\r\n    constructor(string memory _eventName){\r\n        owner = msg.sender;\r\n        eventName = _eventName;\r\n        totalVote = 0;\r\n        votingStarted=false;\r\n    }\r\n\r\n    // function for registering the candidates who would want to contest to vote\r\n    function registerCandidates(string memory _name, uint _age, address _candidateAddress) public {\r\n        require(msg.sender == owner, \"Only owner can register Candidate!!\");\r\n        require(_candidateAddress != owner, \"Owner can not participate!!\");\r\n        require(candidates[_candidateAddress] == 0, \"Candidate already registered\");\r\n        Candidate memory candidate = Candidate({\r\n            name: _name,\r\n            age: _age,\r\n            registered: true,\r\n            votes: 0,\r\n            candidateAddress: _candidateAddress\r\n        });\r\n        if(candidateList.length == 0){ //not pushing any candidate on location zero;\r\n            candidateList.push();\r\n        }\r\n        candidates[_candidateAddress] = candidateList.length;\r\n        candidateList.push(candidate);\r\n        emit success(\"Candidate registered!!\");\r\n    }\r\n\r\n    function startNewElection(string memory _electionName) public{\r\n        require (msg.sender==owner,\"Only Chairperson can Start New Election\");\r\n        eventName=_electionName;\r\n        //delete proposals;\r\n    }\r\n\r\n        function delegateYourVote(address to) public {\r\n        // assigns reference\r\n        Voter storage sender = voterList[msg.sender];\r\n        require(!sender.voted, \"You already voted.\");\r\n        require(to != owner, \"Owner can not vote!!\");\r\n        require(to != msg.sender, \"Self-delegation is disallowed.\");\r\n\r\n        // Forward the delegation as long as\r\n        // `to` also delegated.\r\n        // In general, such loops are very dangerous,\r\n        // because if they run too long, they might\r\n        // need more gas than is available in a block.\r\n        // In this case, the delegation will not be executed,\r\n        // but in other situations, such loops might\r\n        // cause a contract to get \"stuck\" completely.\r\n\r\n        // while (candidateList[to].delegate != address(0)) {\r\n        //     to = voterList[to].delegate;\r\n\r\n        //     // We found a loop in the delegation, not allowed.\r\n        //     require(to != msg.sender, \"Found loop in delegation.\");\r\n        // }\r\n\r\n        // Voter storage delegate_ = candidateList[to];\r\n\r\n        // // Voters cannot delegate to accounts that cannot vote.\r\n        // require(delegate_.weight >= 1);\r\n\r\n        // // Since `sender` is a reference, this\r\n        // // modifies `voters[msg.sender]`.\r\n        // sender.voted = true;\r\n        // sender.delegate = to;\r\n\r\n        // if (delegate_.voted) {\r\n        //     // If the delegate already voted,\r\n        //     // directly add to the number of votes\r\n        //     candidateList[delegate_.vote].voteCount += sender.weight;\r\n        // } else {\r\n        //     // If the delegate did not vote yet,\r\n        //     // add to her weight.\r\n        //     delegate_.weight += sender.weight;\r\n        // }\r\n\r\n        candidateList[candidates[to]].votes++;\r\n        emit success(\"Delegated !!\");\r\n    }\r\n\r\n    // function to whitelist the voter\r\n    function whiteListAddress(address _voterAddress) public {\r\n        require(_voterAddress != owner, \"Owner can not vote!!\");\r\n        require(msg.sender == owner, \"Only owner can whitelist the addresses!!\");\r\n        require(voterList[_voterAddress].registered == false, \"Voter already registered!!\");\r\n        Voter memory voter = Voter({\r\n            registered: true,\r\n            voted: false\r\n        });\r\n\r\n        voterList[_voterAddress] = voter;\r\n        emit success(\"Voter registered!!\");\r\n    }\r\n\r\n    function startVoting() public {\r\n        require(msg.sender == owner, \"Only owner can start voting!!\");\r\n        votingStarted = true;\r\n        emit success(\"Voting Started!!\");\r\n    }\r\n\r\n    // function to cast the vote\r\n    function putVote(address _candidateAddress) public {\r\n        require(votingStarted == true, \"Voting not started yet or ended!!\");\r\n        require(msg.sender != owner, \"Owner can not vote!!\");\r\n        require(voterList[msg.sender].registered == true, \"Voter not registered!!\");\r\n        require(voterList[msg.sender].voted == false, \"Already voted!!\");\r\n        require(candidateList[candidates[_candidateAddress]].registered == true, \"Candidate not registered\");\r\n\r\n        candidateList[candidates[_candidateAddress]].votes++;\r\n        voterList[msg.sender].voted =true;\r\n        //candidateList[candidates].votes += candidateList[candidates[_candidateAddress]].weight;\r\n        uint candidateVotes = candidateList[candidates[_candidateAddress]].votes;\r\n\r\n        if(totalVote < candidateVotes){\r\n            totalVote = candidateVotes;\r\n            winnerAddress = _candidateAddress;\r\n        }\r\n        emit success(\"Voted !!\");\r\n        \r\n    }\r\n\r\n    // function to stop the voting process\r\n    function stopVoting() public {\r\n        require(msg.sender == owner, \"Only owner can start voting!!\");\r\n        votingStarted = false;\r\n        emit success(\"Voting stoped!!\");\r\n    }\r\n\r\n    // function to view all the candidates\r\n    function getAllCandidate() public view returns(Candidate[] memory list){\r\n        return candidateList;\r\n    }\r\n\r\n    //shows the voting status - started or not\r\n    function votingStatus() public view returns(bool){\r\n        return votingStarted;\r\n    }\r\n\r\n    // declares the winner based on the number of votes\r\n    function getWinner() public view returns(Candidate memory candidate){\r\n        require(msg.sender == owner, \"Only owner can declare winner!!\");\r\n        return candidateList[candidates[winnerAddress]];\r\n    }\r\n\r\n\r\n}\r\n",
  "sourcePath": "C:\\Users\\anusha.hadagali\\Desktop\\BT\\FinalProject\\Voting-Dapp\\contract_folder\\contracts\\Voting.sol",
  "compiler": {
    "name": "solc",
    "version": "0.8.19+commit.7dd6d404.Emscripten.clang"
  },
  "schemaVersion": "3.4.13",
  "updatedAt": "2023-05-06T00:43:54.207Z",
  "networkType": "ethereum",
  "devdoc": {
    "kind": "dev",
    "methods": {},
    "version": 1
  },
  "userdoc": {
    "kind": "user",
    "methods": {},
    "version": 1
  }
}