{
  "contractName": "Voting",
  "abi": [
    {
      "inputs": [
        {
          "internalType": "string",
          "name": "_eventName",
          "type": "string"
        }
      ],
      "stateMutability": "nonpayable",
      "type": "constructor"
    },
    {
      "anonymous": false,
      "inputs": [
        {
          "indexed": false,
          "internalType": "string",
          "name": "msg",
          "type": "string"
        }
      ],
      "name": "success",
      "type": "event"
    },
    {
      "inputs": [
        {
          "internalType": "uint256",
          "name": "",
          "type": "uint256"
        }
      ],
      "name": "candidateList",
      "outputs": [
        {
          "internalType": "string",
          "name": "name",
          "type": "string"
        },
        {
          "internalType": "uint256",
          "name": "age",
          "type": "uint256"
        },
        {
          "internalType": "bool",
          "name": "registered",
          "type": "bool"
        },
        {
          "internalType": "address",
          "name": "candidateAddress",
          "type": "address"
        },
        {
          "internalType": "uint256",
          "name": "votes",
          "type": "uint256"
        }
      ],
      "stateMutability": "view",
      "type": "function",
      "constant": true
    },
    {
      "inputs": [
        {
          "internalType": "address",
          "name": "",
          "type": "address"
        }
      ],
      "name": "candidates",
      "outputs": [
        {
          "internalType": "uint256",
          "name": "",
          "type": "uint256"
        }
      ],
      "stateMutability": "view",
      "type": "function",
      "constant": true
    },
    {
      "inputs": [],
      "name": "eventName",
      "outputs": [
        {
          "internalType": "string",
          "name": "",
          "type": "string"
        }
      ],
      "stateMutability": "view",
      "type": "function",
      "constant": true
    },
    {
      "inputs": [],
      "name": "owner",
      "outputs": [
        {
          "internalType": "address",
          "name": "",
          "type": "address"
        }
      ],
      "stateMutability": "view",
      "type": "function",
      "constant": true
    },
    {
      "inputs": [],
      "name": "totalVote",
      "outputs": [
        {
          "internalType": "uint256",
          "name": "",
          "type": "uint256"
        }
      ],
      "stateMutability": "view",
      "type": "function",
      "constant": true
    },
    {
      "inputs": [
        {
          "internalType": "address",
          "name": "",
          "type": "address"
        }
      ],
      "name": "voterList",
      "outputs": [
        {
          "internalType": "bool",
          "name": "registered",
          "type": "bool"
        },
        {
          "internalType": "bool",
          "name": "voted",
          "type": "bool"
        }
      ],
      "stateMutability": "view",
      "type": "function",
      "constant": true
    },
    {
      "inputs": [],
      "name": "winnerAddress",
      "outputs": [
        {
          "internalType": "address",
          "name": "",
          "type": "address"
        }
      ],
      "stateMutability": "view",
      "type": "function",
      "constant": true
    },
    {
      "inputs": [
        {
          "internalType": "string",
          "name": "_name",
          "type": "string"
        },
        {
          "internalType": "uint256",
          "name": "_age",
          "type": "uint256"
        },
        {
          "internalType": "address",
          "name": "_candidateAddress",
          "type": "address"
        }
      ],
      "name": "registerCandidates",
      "outputs": [],
      "stateMutability": "nonpayable",
      "type": "function"
    },
    {
      "inputs": [
        {
          "internalType": "string",
          "name": "_electionName",
          "type": "string"
        }
      ],
      "name": "startNewElection",
      "outputs": [],
      "stateMutability": "nonpayable",
      "type": "function"
    },
    {
      "inputs": [
        {
          "internalType": "address",
          "name": "to",
          "type": "address"
        }
      ],
      "name": "delegateYourVote",
      "outputs": [],
      "stateMutability": "nonpayable",
      "type": "function"
    },
    {
      "inputs": [
        {
          "internalType": "address",
          "name": "_voterAddress",
          "type": "address"
        }
      ],
      "name": "whiteListAddress",
      "outputs": [],
      "stateMutability": "nonpayable",
      "type": "function"
    },
    {
      "inputs": [],
      "name": "startVoting",
      "outputs": [],
      "stateMutability": "nonpayable",
      "type": "function"
    },
    {
      "inputs": [
        {
          "internalType": "address",
          "name": "_candidateAddress",
          "type": "address"
        }
      ],
      "name": "putVote",
      "outputs": [],
      "stateMutability": "nonpayable",
      "type": "function"
    },
    {
      "inputs": [],
      "name": "stopVoting",
      "outputs": [],
      "stateMutability": "nonpayable",
      "type": "function"
    },
    {
      "inputs": [],
      "name": "getAllCandidate",
      "outputs": [
        {
          "components": [
            {
              "internalType": "string",
              "name": "name",
              "type": "string"
            },
            {
              "internalType": "uint256",
              "name": "age",
              "type": "uint256"
            },
            {
              "internalType": "bool",
              "name": "registered",
              "type": "bool"
            },
            {
              "internalType": "address",
              "name": "candidateAddress",
              "type": "address"
            },
            {
              "internalType": "uint256",
              "name": "votes",
              "type": "uint256"
            }
          ],
          "internalType": "struct Voting.Candidate[]",
          "name": "list",
          "type": "tuple[]"
        }
      ],
      "stateMutability": "view",
      "type": "function",
      "constant": true
    },
    {
      "inputs": [],
      "name": "votingStatus",
      "outputs": [
        {
          "internalType": "bool",
          "name": "",
          "type": "bool"
        }
      ],
      "stateMutability": "view",
      "type": "function",
      "constant": true
    },
    {
      "inputs": [],
      "name": "getWinner",
      "outputs": [
        {
          "components": [
            {
              "internalType": "string",
              "name": "name",
              "type": "string"
            },
            {
              "internalType": "uint256",
              "name": "age",
              "type": "uint256"
            },
            {
              "internalType": "bool",
              "name": "registered",
              "type": "bool"
            },
            {
              "internalType": "address",
              "name": "candidateAddress",
              "type": "address"
            },
            {
              "internalType": "uint256",
              "name": "votes",
              "type": "uint256"
            }
          ],
          "internalType": "struct Voting.Candidate",
          "name": "candidate",
          "type": "tuple"
        }
      ],
      "stateMutability": "view",
      "type": "function",
      "constant": true
    }
  ],
  "bytecode": "0x60806040523480156200001157600080fd5b5060405162002f8338038062002f83833981810160405281019062000037919062000246565b336000806101000a81548173ffffffffffffffffffffffffffffffffffffffff021916908373ffffffffffffffffffffffffffffffffffffffff1602179055508060029081620000889190620004e2565b5060006003819055506000600460006101000a81548160ff02191690831515021790555050620005c9565b6000604051905090565b600080fd5b600080fd5b600080fd5b600080fd5b6000601f19601f8301169050919050565b7f4e487b7100000000000000000000000000000000000000000000000000000000600052604160045260246000fd5b6200011c82620000d1565b810181811067ffffffffffffffff821117156200013e576200013d620000e2565b5b80604052505050565b600062000153620000b3565b905062000161828262000111565b919050565b600067ffffffffffffffff821115620001845762000183620000e2565b5b6200018f82620000d1565b9050602081019050919050565b60005b83811015620001bc5780820151818401526020810190506200019f565b60008484015250505050565b6000620001df620001d98462000166565b62000147565b905082815260208101848484011115620001fe57620001fd620000cc565b5b6200020b8482856200019c565b509392505050565b600082601f8301126200022b576200022a620000c7565b5b81516200023d848260208601620001c8565b91505092915050565b6000602082840312156200025f576200025e620000bd565b5b600082015167ffffffffffffffff81111562000280576200027f620000c2565b5b6200028e8482850162000213565b91505092915050565b600081519050919050565b7f4e487b7100000000000000000000000000000000000000000000000000000000600052602260045260246000fd5b60006002820490506001821680620002ea57607f821691505b6020821081036200030057620002ff620002a2565b5b50919050565b60008190508160005260206000209050919050565b60006020601f8301049050919050565b600082821b905092915050565b6000600883026200036a7fffffffffffffffffffffffffffffffffffffffffffffffffffffffffffffffff826200032b565b6200037686836200032b565b95508019841693508086168417925050509392505050565b6000819050919050565b6000819050919050565b6000620003c3620003bd620003b7846200038e565b62000398565b6200038e565b9050919050565b6000819050919050565b620003df83620003a2565b620003f7620003ee82620003ca565b84845462000338565b825550505050565b600090565b6200040e620003ff565b6200041b818484620003d4565b505050565b5b8181101562000443576200043760008262000404565b60018101905062000421565b5050565b601f82111562000492576200045c8162000306565b62000467846200031b565b8101602085101562000477578190505b6200048f62000486856200031b565b83018262000420565b50505b505050565b600082821c905092915050565b6000620004b76000198460080262000497565b1980831691505092915050565b6000620004d28383620004a4565b9150826002028217905092915050565b620004ed8262000297565b67ffffffffffffffff811115620005095762000508620000e2565b5b620005158254620002d1565b6200052282828562000447565b600060209050601f8311600181146200055a576000841562000545578287015190505b620005518582620004c4565b865550620005c1565b601f1984166200056a8662000306565b60005b8281101562000594578489015182556001820191506020850194506020810190506200056d565b86831015620005b45784890151620005b0601f891682620004a4565b8355505b6001600288020188555050505b505050505050565b6129aa80620005d96000396000f3fe608060405234801561001057600080fd5b506004361061010b5760003560e01c80638da5cb5b116100a2578063cf52a7b211610071578063cf52a7b214610297578063ed7a4e0b146102b3578063efd5297c146102d1578063f1cea4c7146102ef578063fab2f86b1461030d5761010b565b80638da5cb5b1461020b5780638e7ea5b214610229578063b13c744b14610247578063b2d300721461027b5761010b565b806365087215116100de57806365087215146101855780638043c9c0146101a157806388fb6f74146101bf5780638ab66a90146101db5761010b565b806303b4caed1461011057806319f41a40146101415780631ec6b60a1461015f5780633c71a6d514610169575b600080fd5b61012a6004803603810190610125919061171b565b610317565b604051610138929190611763565b60405180910390f35b610149610355565b604051610156919061178c565b60405180910390f35b61016761036c565b005b610183600480360381019061017e9190611923565b61044c565b005b61019f600480360381019061019a9190611992565b61079e565b005b6101a961083f565b6040516101b69190611a5a565b60405180910390f35b6101d960048036038101906101d4919061171b565b6108cd565b005b6101f560048036038101906101f0919061171b565b610d5f565b6040516102029190611a8b565b60405180910390f35b610213610d77565b6040516102209190611ab5565b60405180910390f35b610231610d9b565b60405161023e9190611bbd565b60405180910390f35b610261600480360381019061025c9190611bdf565b610fdb565b604051610272959493929190611c0c565b60405180910390f35b6102956004803603810190610290919061171b565b6110d6565b005b6102b160048036038101906102ac919061171b565b611153565b005b6102bb6113e0565b6040516102c89190611ab5565b60405180910390f35b6102d9611406565b6040516102e69190611d9e565b60405180910390f35b6102f761157c565b6040516103049190611a8b565b60405180910390f35b610315611582565b005b60076020528060005260406000206000915090508060000160009054906101000a900460ff16908060000160019054906101000a900460ff16905082565b6000600460009054906101000a900460ff16905090565b60008054906101000a900473ffffffffffffffffffffffffffffffffffffffff1673ffffffffffffffffffffffffffffffffffffffff163373ffffffffffffffffffffffffffffffffffffffff16146103fa576040517f08c379a00000000000000000000000000000000000000000000000000000000081526004016103f190611e0c565b60405180910390fd5b6001600460006101000a81548160ff0219169083151502179055507f68f068b2f0d02fca99bc8285b62fce8668fe16b7c6a810351ea25bff358c0dd860405161044290611e78565b60405180910390a1565b60008054906101000a900473ffffffffffffffffffffffffffffffffffffffff1673ffffffffffffffffffffffffffffffffffffffff163373ffffffffffffffffffffffffffffffffffffffff16146104da576040517f08c379a00000000000000000000000000000000000000000000000000000000081526004016104d190611f0a565b60405180910390fd5b60008054906101000a900473ffffffffffffffffffffffffffffffffffffffff1673ffffffffffffffffffffffffffffffffffffffff168173ffffffffffffffffffffffffffffffffffffffff1603610568576040517f08c379a000000000000000000000000000000000000000000000000000000000815260040161055f90611f76565b60405180910390fd5b6000600560008373ffffffffffffffffffffffffffffffffffffffff1673ffffffffffffffffffffffffffffffffffffffff16815260200190815260200160002054146105ea576040517f08c379a00000000000000000000000000000000000000000000000000000000081526004016105e190611fe2565b60405180910390fd5b60006040518060a001604052808581526020018481526020016001151581526020018373ffffffffffffffffffffffffffffffffffffffff1681526020016000815250905060006006805490500361065b576006600181600181540180825580915050039060005260206000209050505b600680549050600560008473ffffffffffffffffffffffffffffffffffffffff1673ffffffffffffffffffffffffffffffffffffffff16815260200190815260200160002081905550600681908060018154018082558091505060019003906000526020600020906004020160009091909190915060008201518160000190816106e5919061220e565b506020820151816001015560408201518160020160006101000a81548160ff02191690831515021790555060608201518160020160016101000a81548173ffffffffffffffffffffffffffffffffffffffff021916908373ffffffffffffffffffffffffffffffffffffffff1602179055506080820151816003015550507f68f068b2f0d02fca99bc8285b62fce8668fe16b7c6a810351ea25bff358c0dd86040516107909061232c565b60405180910390a150505050565b60008054906101000a900473ffffffffffffffffffffffffffffffffffffffff1673ffffffffffffffffffffffffffffffffffffffff163373ffffffffffffffffffffffffffffffffffffffff161461082c576040517f08c379a0000000000000000000000000000000000000000000000000000000008152600401610823906123be565b60405180910390fd5b806002908161083b919061220e565b5050565b6002805461084c90612031565b80601f016020809104026020016040519081016040528092919081815260200182805461087890612031565b80156108c55780601f1061089a576101008083540402835291602001916108c5565b820191906000526020600020905b8154815290600101906020018083116108a857829003601f168201915b505050505081565b60011515600460009054906101000a900460ff16151514610923576040517f08c379a000000000000000000000000000000000000000000000000000000000815260040161091a90612450565b60405180910390fd5b60008054906101000a900473ffffffffffffffffffffffffffffffffffffffff1673ffffffffffffffffffffffffffffffffffffffff163373ffffffffffffffffffffffffffffffffffffffff16036109b1576040517f08c379a00000000000000000000000000000000000000000000000000000000081526004016109a8906124bc565b60405180910390fd5b60011515600760003373ffffffffffffffffffffffffffffffffffffffff1673ffffffffffffffffffffffffffffffffffffffff16815260200190815260200160002060000160009054906101000a900460ff16151514610a47576040517f08c379a0000000000000000000000000000000000000000000000000000000008152600401610a3e90612528565b60405180910390fd5b60001515600760003373ffffffffffffffffffffffffffffffffffffffff1673ffffffffffffffffffffffffffffffffffffffff16815260200190815260200160002060000160019054906101000a900460ff16151514610add576040517f08c379a0000000000000000000000000000000000000000000000000000000008152600401610ad490612594565b60405180910390fd5b600115156006600560008473ffffffffffffffffffffffffffffffffffffffff1673ffffffffffffffffffffffffffffffffffffffff1681526020019081526020016000205481548110610b3457610b336125b4565b5b906000526020600020906004020160020160009054906101000a900460ff16151514610b95576040517f08c379a0000000000000000000000000000000000000000000000000000000008152600401610b8c9061262f565b60405180910390fd5b6006600560008373ffffffffffffffffffffffffffffffffffffffff1673ffffffffffffffffffffffffffffffffffffffff1681526020019081526020016000205481548110610be857610be76125b4565b5b90600052602060002090600402016003016000815480929190610c0a9061267e565b91905055506001600760003373ffffffffffffffffffffffffffffffffffffffff1673ffffffffffffffffffffffffffffffffffffffff16815260200190815260200160002060000160016101000a81548160ff02191690831515021790555060006006600560008473ffffffffffffffffffffffffffffffffffffffff1673ffffffffffffffffffffffffffffffffffffffff1681526020019081526020016000205481548110610cbf57610cbe6125b4565b5b9060005260206000209060040201600301549050806003541015610d26578060038190555081600160006101000a81548173ffffffffffffffffffffffffffffffffffffffff021916908373ffffffffffffffffffffffffffffffffffffffff1602179055505b7f68f068b2f0d02fca99bc8285b62fce8668fe16b7c6a810351ea25bff358c0dd8604051610d5390612712565b60405180910390a15050565b60056020528060005260406000206000915090505481565b60008054906101000a900473ffffffffffffffffffffffffffffffffffffffff1681565b610da3611662565b60008054906101000a900473ffffffffffffffffffffffffffffffffffffffff1673ffffffffffffffffffffffffffffffffffffffff163373ffffffffffffffffffffffffffffffffffffffff1614610e31576040517f08c379a0000000000000000000000000000000000000000000000000000000008152600401610e289061277e565b60405180910390fd5b600660056000600160009054906101000a900473ffffffffffffffffffffffffffffffffffffffff1673ffffffffffffffffffffffffffffffffffffffff1673ffffffffffffffffffffffffffffffffffffffff1681526020019081526020016000205481548110610ea657610ea56125b4565b5b90600052602060002090600402016040518060a0016040529081600082018054610ecf90612031565b80601f0160208091040260200160405190810160405280929190818152602001828054610efb90612031565b8015610f485780601f10610f1d57610100808354040283529160200191610f48565b820191906000526020600020905b815481529060010190602001808311610f2b57829003601f168201915b50505050508152602001600182015481526020016002820160009054906101000a900460ff161515151581526020016002820160019054906101000a900473ffffffffffffffffffffffffffffffffffffffff1673ffffffffffffffffffffffffffffffffffffffff1673ffffffffffffffffffffffffffffffffffffffff168152602001600382015481525050905090565b60068181548110610feb57600080fd5b906000526020600020906004020160009150905080600001805461100e90612031565b80601f016020809104026020016040519081016040528092919081815260200182805461103a90612031565b80156110875780601f1061105c57610100808354040283529160200191611087565b820191906000526020600020905b81548152906001019060200180831161106a57829003601f168201915b5050505050908060010154908060020160009054906101000a900460ff16908060020160019054906101000a900473ffffffffffffffffffffffffffffffffffffffff16908060030154905085565b6006600560008373ffffffffffffffffffffffffffffffffffffffff1673ffffffffffffffffffffffffffffffffffffffff1681526020019081526020016000205481548110611129576111286125b4565b5b9060005260206000209060040201600301600081548092919061114b9061267e565b919050555050565b60008054906101000a900473ffffffffffffffffffffffffffffffffffffffff1673ffffffffffffffffffffffffffffffffffffffff168173ffffffffffffffffffffffffffffffffffffffff16036111e1576040517f08c379a00000000000000000000000000000000000000000000000000000000081526004016111d8906124bc565b60405180910390fd5b60008054906101000a900473ffffffffffffffffffffffffffffffffffffffff1673ffffffffffffffffffffffffffffffffffffffff163373ffffffffffffffffffffffffffffffffffffffff161461126f576040517f08c379a000000000000000000000000000000000000000000000000000000000815260040161126690612810565b60405180910390fd5b60001515600760008373ffffffffffffffffffffffffffffffffffffffff1673ffffffffffffffffffffffffffffffffffffffff16815260200190815260200160002060000160009054906101000a900460ff16151514611305576040517f08c379a00000000000000000000000000000000000000000000000000000000081526004016112fc9061287c565b60405180910390fd5b6000604051806040016040528060011515815260200160001515815250905080600760008473ffffffffffffffffffffffffffffffffffffffff1673ffffffffffffffffffffffffffffffffffffffff16815260200190815260200160002060008201518160000160006101000a81548160ff02191690831515021790555060208201518160000160016101000a81548160ff0219169083151502179055509050507f68f068b2f0d02fca99bc8285b62fce8668fe16b7c6a810351ea25bff358c0dd86040516113d4906128e8565b60405180910390a15050565b600160009054906101000a900473ffffffffffffffffffffffffffffffffffffffff1681565b60606006805480602002602001604051908101604052809291908181526020016000905b8282101561157357838290600052602060002090600402016040518060a001604052908160008201805461145d90612031565b80601f016020809104026020016040519081016040528092919081815260200182805461148990612031565b80156114d65780601f106114ab576101008083540402835291602001916114d6565b820191906000526020600020905b8154815290600101906020018083116114b957829003601f168201915b50505050508152602001600182015481526020016002820160009054906101000a900460ff161515151581526020016002820160019054906101000a900473ffffffffffffffffffffffffffffffffffffffff1673ffffffffffffffffffffffffffffffffffffffff1673ffffffffffffffffffffffffffffffffffffffff1681526020016003820154815250508152602001906001019061142a565b50505050905090565b60035481565b60008054906101000a900473ffffffffffffffffffffffffffffffffffffffff1673ffffffffffffffffffffffffffffffffffffffff163373ffffffffffffffffffffffffffffffffffffffff1614611610576040517f08c379a000000000000000000000000000000000000000000000000000000000815260040161160790611e0c565b60405180910390fd5b6000600460006101000a81548160ff0219169083151502179055507f68f068b2f0d02fca99bc8285b62fce8668fe16b7c6a810351ea25bff358c0dd860405161165890612954565b60405180910390a1565b6040518060a001604052806060815260200160008152602001600015158152602001600073ffffffffffffffffffffffffffffffffffffffff168152602001600081525090565b6000604051905090565b600080fd5b600080fd5b600073ffffffffffffffffffffffffffffffffffffffff82169050919050565b60006116e8826116bd565b9050919050565b6116f8816116dd565b811461170357600080fd5b50565b600081359050611715816116ef565b92915050565b600060208284031215611731576117306116b3565b5b600061173f84828501611706565b91505092915050565b60008115159050919050565b61175d81611748565b82525050565b60006040820190506117786000830185611754565b6117856020830184611754565b9392505050565b60006020820190506117a16000830184611754565b92915050565b600080fd5b600080fd5b6000601f19601f8301169050919050565b7f4e487b7100000000000000000000000000000000000000000000000000000000600052604160045260246000fd5b6117fa826117b1565b810181811067ffffffffffffffff82111715611819576118186117c2565b5b80604052505050565b600061182c6116a9565b905061183882826117f1565b919050565b600067ffffffffffffffff821115611858576118576117c2565b5b611861826117b1565b9050602081019050919050565b82818337600083830152505050565b600061189061188b8461183d565b611822565b9050828152602081018484840111156118ac576118ab6117ac565b5b6118b784828561186e565b509392505050565b600082601f8301126118d4576118d36117a7565b5b81356118e484826020860161187d565b91505092915050565b6000819050919050565b611900816118ed565b811461190b57600080fd5b50565b60008135905061191d816118f7565b92915050565b60008060006060848603121561193c5761193b6116b3565b5b600084013567ffffffffffffffff81111561195a576119596116b8565b5b611966868287016118bf565b93505060206119778682870161190e565b925050604061198886828701611706565b9150509250925092565b6000602082840312156119a8576119a76116b3565b5b600082013567ffffffffffffffff8111156119c6576119c56116b8565b5b6119d2848285016118bf565b91505092915050565b600081519050919050565b600082825260208201905092915050565b60005b83811015611a155780820151818401526020810190506119fa565b60008484015250505050565b6000611a2c826119db565b611a3681856119e6565b9350611a468185602086016119f7565b611a4f816117b1565b840191505092915050565b60006020820190508181036000830152611a748184611a21565b905092915050565b611a85816118ed565b82525050565b6000602082019050611aa06000830184611a7c565b92915050565b611aaf816116dd565b82525050565b6000602082019050611aca6000830184611aa6565b92915050565b600082825260208201905092915050565b6000611aec826119db565b611af68185611ad0565b9350611b068185602086016119f7565b611b0f816117b1565b840191505092915050565b611b23816118ed565b82525050565b611b3281611748565b82525050565b611b41816116dd565b82525050565b600060a0830160008301518482036000860152611b648282611ae1565b9150506020830151611b796020860182611b1a565b506040830151611b8c6040860182611b29565b506060830151611b9f6060860182611b38565b506080830151611bb26080860182611b1a565b508091505092915050565b60006020820190508181036000830152611bd78184611b47565b905092915050565b600060208284031215611bf557611bf46116b3565b5b6000611c038482850161190e565b91505092915050565b600060a0820190508181036000830152611c268188611a21565b9050611c356020830187611a7c565b611c426040830186611754565b611c4f6060830185611aa6565b611c5c6080830184611a7c565b9695505050505050565b600081519050919050565b600082825260208201905092915050565b6000819050602082019050919050565b600060a0830160008301518482036000860152611caf8282611ae1565b9150506020830151611cc46020860182611b1a565b506040830151611cd76040860182611b29565b506060830151611cea6060860182611b38565b506080830151611cfd6080860182611b1a565b508091505092915050565b6000611d148383611c92565b905092915050565b6000602082019050919050565b6000611d3482611c66565b611d3e8185611c71565b935083602082028501611d5085611c82565b8060005b85811015611d8c5784840389528151611d6d8582611d08565b9450611d7883611d1c565b925060208a01995050600181019050611d54565b50829750879550505050505092915050565b60006020820190508181036000830152611db88184611d29565b905092915050565b7f4f6e6c79206f776e65722063616e20737461727420766f74696e672121000000600082015250565b6000611df6601d836119e6565b9150611e0182611dc0565b602082019050919050565b60006020820190508181036000830152611e2581611de9565b9050919050565b7f566f74696e672053746172746564212100000000000000000000000000000000600082015250565b6000611e626010836119e6565b9150611e6d82611e2c565b602082019050919050565b60006020820190508181036000830152611e9181611e55565b9050919050565b7f4f6e6c79206f776e65722063616e2072656769737465722043616e646964617460008201527f6521210000000000000000000000000000000000000000000000000000000000602082015250565b6000611ef46023836119e6565b9150611eff82611e98565b604082019050919050565b60006020820190508181036000830152611f2381611ee7565b9050919050565b7f4f776e65722063616e206e6f7420706172746963697061746521210000000000600082015250565b6000611f60601b836119e6565b9150611f6b82611f2a565b602082019050919050565b60006020820190508181036000830152611f8f81611f53565b9050919050565b7f43616e64696461746520616c7265616479207265676973746572656400000000600082015250565b6000611fcc601c836119e6565b9150611fd782611f96565b602082019050919050565b60006020820190508181036000830152611ffb81611fbf565b9050919050565b7f4e487b7100000000000000000000000000000000000000000000000000000000600052602260045260246000fd5b6000600282049050600182168061204957607f821691505b60208210810361205c5761205b612002565b5b50919050565b60008190508160005260206000209050919050565b60006020601f8301049050919050565b600082821b905092915050565b6000600883026120c47fffffffffffffffffffffffffffffffffffffffffffffffffffffffffffffffff82612087565b6120ce8683612087565b95508019841693508086168417925050509392505050565b6000819050919050565b600061210b612106612101846118ed565b6120e6565b6118ed565b9050919050565b6000819050919050565b612125836120f0565b61213961213182612112565b848454612094565b825550505050565b600090565b61214e612141565b61215981848461211c565b505050565b5b8181101561217d57612172600082612146565b60018101905061215f565b5050565b601f8211156121c25761219381612062565b61219c84612077565b810160208510156121ab578190505b6121bf6121b785612077565b83018261215e565b50505b505050565b600082821c905092915050565b60006121e5600019846008026121c7565b1980831691505092915050565b60006121fe83836121d4565b9150826002028217905092915050565b612217826119db565b67ffffffffffffffff8111156122305761222f6117c2565b5b61223a8254612031565b612245828285612181565b600060209050601f8311600181146122785760008415612266578287015190505b61227085826121f2565b8655506122d8565b601f19841661228686612062565b60005b828110156122ae57848901518255600182019150602085019450602081019050612289565b868310156122cb57848901516122c7601f8916826121d4565b8355505b6001600288020188555050505b505050505050565b7f43616e6469646174652072656769737465726564212100000000000000000000600082015250565b60006123166016836119e6565b9150612321826122e0565b602082019050919050565b6000602082019050818103600083015261234581612309565b9050919050565b7f4f6e6c79204368616972706572736f6e2063616e205374617274204e6577204560008201527f6c656374696f6e00000000000000000000000000000000000000000000000000602082015250565b60006123a86027836119e6565b91506123b38261234c565b604082019050919050565b600060208201905081810360008301526123d78161239b565b9050919050565b7f566f74696e67206e6f74207374617274656420796574206f7220656e6465642160008201527f2100000000000000000000000000000000000000000000000000000000000000602082015250565b600061243a6021836119e6565b9150612445826123de565b604082019050919050565b600060208201905081810360008301526124698161242d565b9050919050565b7f4f776e65722063616e206e6f7420766f74652121000000000000000000000000600082015250565b60006124a66014836119e6565b91506124b182612470565b602082019050919050565b600060208201905081810360008301526124d581612499565b9050919050565b7f566f746572206e6f742072656769737465726564212100000000000000000000600082015250565b60006125126016836119e6565b915061251d826124dc565b602082019050919050565b6000602082019050818103600083015261254181612505565b9050919050565b7f416c726561647920766f74656421210000000000000000000000000000000000600082015250565b600061257e600f836119e6565b915061258982612548565b602082019050919050565b600060208201905081810360008301526125ad81612571565b9050919050565b7f4e487b7100000000000000000000000000000000000000000000000000000000600052603260045260246000fd5b7f43616e646964617465206e6f7420726567697374657265640000000000000000600082015250565b60006126196018836119e6565b9150612624826125e3565b602082019050919050565b600060208201905081810360008301526126488161260c565b9050919050565b7f4e487b7100000000000000000000000000000000000000000000000000000000600052601160045260246000fd5b6000612689826118ed565b91507fffffffffffffffffffffffffffffffffffffffffffffffffffffffffffffffff82036126bb576126ba61264f565b5b600182019050919050565b7f566f746564202121000000000000000000000000000000000000000000000000600082015250565b60006126fc6008836119e6565b9150612707826126c6565b602082019050919050565b6000602082019050818103600083015261272b816126ef565b9050919050565b7f4f6e6c79206f776e65722063616e206465636c6172652077696e6e6572212100600082015250565b6000612768601f836119e6565b915061277382612732565b602082019050919050565b600060208201905081810360008301526127978161275b565b9050919050565b7f4f6e6c79206f776e65722063616e2077686974656c697374207468652061646460008201527f7265737365732121000000000000000000000000000000000000000000000000602082015250565b60006127fa6028836119e6565b91506128058261279e565b604082019050919050565b60006020820190508181036000830152612829816127ed565b9050919050565b7f566f74657220616c726561647920726567697374657265642121000000000000600082015250565b6000612866601a836119e6565b915061287182612830565b602082019050919050565b6000602082019050818103600083015261289581612859565b9050919050565b7f566f746572207265676973746572656421210000000000000000000000000000600082015250565b60006128d26012836119e6565b91506128dd8261289c565b602082019050919050565b60006020820190508181036000830152612901816128c5565b9050919050565b7f566f74696e672073746f70656421210000000000000000000000000000000000600082015250565b600061293e600f836119e6565b915061294982612908565b602082019050919050565b6000602082019050818103600083015261296d81612931565b905091905056fea2646970667358221220a54476086a2312588b82186806367da6da83357ba5226aa59056a2ef0ca2725164736f6c63430008130033",
  "immutableReferences": {},
  "source": "// SPDX-License-Identifier: GPL-3.0\r\n\r\npragma solidity ^0.8.0;\r\n\r\ncontract Voting {\r\n\r\n    address public owner;\r\n    address public winnerAddress;\r\n    string public eventName;\r\n    uint public totalVote;\r\n    bool votingStarted;\r\n\r\n    //Candidate with his/her basic details\r\n    struct Candidate{\r\n        string name;\r\n        uint age;\r\n        bool registered;\r\n        address candidateAddress;\r\n        uint votes;\r\n    }\r\n\r\n    struct Voter{\r\n        bool registered; // if true, that person is already registered\r\n        bool voted;  // if true, that person already voted\r\n    }\r\n\r\n\r\n    event success(string msg);\r\n    mapping(address=>uint) public candidates;\r\n    Candidate[] public candidateList;\r\n    mapping(address=>Voter) public voterList;\r\n\r\n    constructor(string memory _eventName){\r\n        owner = msg.sender;\r\n        eventName = _eventName;\r\n        totalVote = 0;\r\n        votingStarted=false;\r\n    }\r\n\r\n    // function for registering the candidates who would want to contest to vote\r\n    function registerCandidates(string memory _name, uint _age, address _candidateAddress) public {\r\n        require(msg.sender == owner, \"Only owner can register Candidate!!\");\r\n        require(_candidateAddress != owner, \"Owner can not participate!!\");\r\n        require(candidates[_candidateAddress] == 0, \"Candidate already registered\");\r\n        Candidate memory candidate = Candidate({\r\n            name: _name,\r\n            age: _age,\r\n            registered: true,\r\n            votes: 0,\r\n            candidateAddress: _candidateAddress\r\n        });\r\n        if(candidateList.length == 0){ //not pushing any candidate on location zero;\r\n            candidateList.push();\r\n        }\r\n        candidates[_candidateAddress] = candidateList.length;\r\n        candidateList.push(candidate);\r\n        emit success(\"Candidate registered!!\");\r\n    }\r\n\r\n    function startNewElection(string memory _electionName) public{\r\n        require (msg.sender==owner,\"Only Chairperson can Start New Election\");\r\n        eventName=_electionName;\r\n        //delete proposals;\r\n    }\r\n\r\n        function delegateYourVote(address to) external {\r\n        // assigns reference\r\n       // Voter storage sender = voterList[msg.sender];\r\n       // require(!sender.voted, \"You already voted.\");\r\n\r\n       // require(to != msg.sender, \"Self-delegation is disallowed.\");\r\n\r\n        // Forward the delegation as long as\r\n        // `to` also delegated.\r\n        // In general, such loops are very dangerous,\r\n        // because if they run too long, they might\r\n        // need more gas than is available in a block.\r\n        // In this case, the delegation will not be executed,\r\n        // but in other situations, such loops might\r\n        // cause a contract to get \"stuck\" completely.\r\n\r\n        // while (candidateList[to].delegate != address(0)) {\r\n        //     to = voterList[to].delegate;\r\n\r\n        //     // We found a loop in the delegation, not allowed.\r\n        //     require(to != msg.sender, \"Found loop in delegation.\");\r\n        // }\r\n\r\n        // Voter storage delegate_ = candidateList[to];\r\n\r\n        // // Voters cannot delegate to accounts that cannot vote.\r\n        // require(delegate_.weight >= 1);\r\n\r\n        // // Since `sender` is a reference, this\r\n        // // modifies `voters[msg.sender]`.\r\n        // sender.voted = true;\r\n        // sender.delegate = to;\r\n\r\n        // if (delegate_.voted) {\r\n        //     // If the delegate already voted,\r\n        //     // directly add to the number of votes\r\n        //     candidateList[delegate_.vote].voteCount += sender.weight;\r\n        // } else {\r\n        //     // If the delegate did not vote yet,\r\n        //     // add to her weight.\r\n        //     delegate_.weight += sender.weight;\r\n        // }\r\n\r\n        candidateList[candidates[to]].votes++;\r\n    }\r\n\r\n    // function to whitelist the voter\r\n    function whiteListAddress(address _voterAddress) public {\r\n        require(_voterAddress != owner, \"Owner can not vote!!\");\r\n        require(msg.sender == owner, \"Only owner can whitelist the addresses!!\");\r\n        require(voterList[_voterAddress].registered == false, \"Voter already registered!!\");\r\n        Voter memory voter = Voter({\r\n            registered: true,\r\n            voted: false\r\n        });\r\n\r\n        voterList[_voterAddress] = voter;\r\n        emit success(\"Voter registered!!\");\r\n    }\r\n\r\n    function startVoting() public {\r\n        require(msg.sender == owner, \"Only owner can start voting!!\");\r\n        votingStarted = true;\r\n        emit success(\"Voting Started!!\");\r\n    }\r\n\r\n    // function to cast the vote\r\n    function putVote(address _candidateAddress) public {\r\n        require(votingStarted == true, \"Voting not started yet or ended!!\");\r\n        require(msg.sender != owner, \"Owner can not vote!!\");\r\n        require(voterList[msg.sender].registered == true, \"Voter not registered!!\");\r\n        require(voterList[msg.sender].voted == false, \"Already voted!!\");\r\n        require(candidateList[candidates[_candidateAddress]].registered == true, \"Candidate not registered\");\r\n\r\n        candidateList[candidates[_candidateAddress]].votes++;\r\n        voterList[msg.sender].voted =true;\r\n        //candidateList[candidates].votes += candidateList[candidates[_candidateAddress]].weight;\r\n        uint candidateVotes = candidateList[candidates[_candidateAddress]].votes;\r\n\r\n        if(totalVote < candidateVotes){\r\n            totalVote = candidateVotes;\r\n            winnerAddress = _candidateAddress;\r\n        }\r\n        emit success(\"Voted !!\");\r\n        \r\n    }\r\n\r\n    // function to stop the voting process\r\n    function stopVoting() public {\r\n        require(msg.sender == owner, \"Only owner can start voting!!\");\r\n        votingStarted = false;\r\n        emit success(\"Voting stoped!!\");\r\n    }\r\n\r\n    // function to view all the candidates\r\n    function getAllCandidate() public view returns(Candidate[] memory list){\r\n        return candidateList;\r\n    }\r\n\r\n    //shows the voting status - started or not\r\n    function votingStatus() public view returns(bool){\r\n        return votingStarted;\r\n    }\r\n\r\n    // declares the winner based on the number of votes\r\n    function getWinner() public view returns(Candidate memory candidate){\r\n        require(msg.sender == owner, \"Only owner can declare winner!!\");\r\n        return candidateList[candidates[winnerAddress]];\r\n    }\r\n\r\n\r\n}\r\n",
  "sourcePath": "C:\\Users\\anusha.hadagali\\Desktop\\BT\\FinalProject\\Voting-Dapp\\contract_folder\\contracts\\Voting.sol",
  "compiler": {
    "name": "solc",
    "version": "0.8.19+commit.7dd6d404.Emscripten.clang"
  },
  "schemaVersion": "3.4.13",
  "updatedAt": "2023-05-05T18:29:33.709Z",
  "networkType": "ethereum",
  "devdoc": {
    "kind": "dev",
    "methods": {},
    "version": 1
  },
  "userdoc": {
    "kind": "user",
    "methods": {},
    "version": 1
  }
}